:020000040800F2
:10000000D807002001020008090200080B020008BE
:100010000D0200080F020008110200080000000095
:1000200000000000000000000000000013020008B3
:10003000150200080000000017020008C522000891
:100040001B0200081B0200081B0200081B0200081C
:100050001B0200081B0200081B0200081B0200080C
:100060001B0200081B0200081B0200081B020008FC
:100070001B0200081B0200081B0200081B020008EC
:100080001B0200081B0200081B0200081B020008DC
:100090001B0200081B0200081B0200081B020008CC
:1000A0001B0200081B0200081B0200081B020008BC
:1000B00095230008992400081B0200081B02000871
:1000C0001B0200081B0200081B0200081B0200089C
:1000D0001B0200086D0100081B0200081B0200083B
:1000E0001B0200081B0200081B02000800F002F8B7
:1000F00000F02CF80AA090E8000C82448344AAF196
:100100000107DA4501D100F021F8AFF2090EBAE893
:100110000F0013F0010F18BFFB1A43F0010318473B
:10012000803C0000903C00000023002400250026B5
:10013000103A28BF78C1FBD8520728BF30C148BF4A
:100140000B6070471FB51FBD10B510BD00F08EF8D5
:100150001146FFF7F7FF02F01DFA00F0ACF803B408
:10016000FFF7F2FF03BC00F0AFF8000043F6040015
:10017000C4F20100016840F2F800C2F20000026817
:1001800011700068007858B9FFE743F60000C4F228
:100190000100006840F2D011C2F2000108602DE0B9
:1001A00040F2F800C2F20000006800780D2809D083
:1001B000FFE740F2F800C2F20000006800780A2869
:1001C00013D1FFE740F2C011C2F200010120087014
:1001D00040F2F801C2F200010A680020107040F2FB
:1001E0003810C2F20000086007E040F2F801C2F2E5
:1001F0000001086801300860FFE7FFE77047000072
:100200000948804709480047FEE7FEE7FEE7FEE7AA
:10021000FEE7FEE7FEE7FEE7FEE7FEE704480549E6
:10022000054A064B70470000DD220008ED0000087B
:10023000D8010020D8070020D8030020D8030020D0
:1002400070477047704710B500F008F8006810BD9F
:1002500010B5044600F002F8046010BD0048704775
:100260000000002000487047000000207546FFF79E
:10027000F9FFAE4605006946534620F00700854663
:1002800018B020B5FFF7CAFFBDE820404FF00006C8
:100290004FF000074FF000084FF0000BAC46ACE801
:1002A000C009ACE8C009ACE8C009ACE8C00921F05D
:1002B00007018D46704710B50446AFF30080204615
:1002C000BDE81040FFF74BBF01491820ABBEFEE769
:1002D000260002007047000080B582B040F2D411C1
:1002E000C2F200010020019008604EF21402CEF22A
:1002F0000002116845F23F43C0F2890319431160BF
:100300004EF21801CEF2000108604FF0FF300F21CD
:1003100001F0ACFE01984EF21001CEF2000108602F
:10032000086840F00300086002B080BD81B0ADF8FD
:100330000200BDF8020040F63401C4F2000108805A
:1003400001B0704781B0ADF80200BDF8020040F680
:100350003801C4F20001088001B0704781B0ADF8E7
:100360000200BDF8020040F63C01C4F20001088022
:1003700001B0704781B0ADF80200BDF8020040F650
:100380004001C4F20001088001B0704781B08DF8CF
:1003900003009DF8030000F00F008DF802009DF8A7
:1003A00003100020B0EB111F0DD1FFE79DF80210E4
:1003B000012000FA01F240F61001C4F201010868C0
:1003C0001043086029E09DF803100120B0EB111FD5
:1003D0000DD1FFE79DF80210012000FA01F240F66E
:1003E0001041C4F2010108681043086014E09DF850
:1003F00003100220B0EB111F0DD1FFE79DF8021092
:10040000012000FA01F241F21001C4F20101086872
:1004100010430860FFE7FFE7FFE701B07047000007
:1004200081B08DF803009DF8030000F00F008DF8F7
:1004300002009DF803100020B0EB111F0FD1FFE761
:100440009DF8020000F11001012000FA01F240F6CF
:100450001001C4F201010868104308602DE09DF806
:1004600003100120B0EB111F0FD1FFE79DF8020030
:1004700000F11001012000FA01F240F61041C4F22F
:10048000010108681043086016E09DF8031002207F
:10049000B0EB111F0FD1FFE79DF8020000F1100132
:1004A000012000FA01F241F21001C4F201010868D2
:1004B00010430860FFE7FFE7FFE701B07047000067
:1004C00081B08DF803008DF802109DF8030000F054
:1004D0000F008DF801009DF803100020B0EB111FF4
:1004E00040F0F580FFE741F21800C4F20200006816
:1004F0004007002809D4FFE741F21801C4F20201C5
:10050000086840F004000860FFE79DF8020000283A
:100510004ED1FFE79DF80100072818DCFFE79DF8A2
:10052000010081000F2000FA01F240F60001C4F240
:1005300001010868904308609DF801008000821C5A
:10054000022000FA02F20868104308601CE09DF8DF
:1005500001106FF01F0000EB81010F2000FA01F283
:1005600040F60401C4F201010868904308609DF858
:1005700001206FF01D0000EB8202022000FA02F25F
:10058000086810430860FFE79DF80110012000FA99
:1005900001F340F60C01C4F201010A689A430A60B3
:1005A0009DF8012000FA02F20868104308608DE00F
:1005B0009DF80200012847D1FFE79DF801000728B8
:1005C00018DCFFE79DF8010081000F2000FA01F21E
:1005D00040F60001C4F201010868904308609DF8EC
:1005E00001008000821C022000FA02F20868104319
:1005F00008601CE09DF801106FF01F0000EB810106
:100600000F2000FA01F240F60401C4F2010108686B
:10061000904308609DF801206FF01D0000EB8202FE
:10062000022000FA02F2086810430860FFE79DF814
:100630000110012000FA01F240F60C01C4F20101A0
:1006400008689043086040E09DF8020002283BD112
:10065000FFE79DF80100072818DCFFE79DF801007F
:1006600081000F2000FA01F240F60001C4F20101FE
:100670000868904308609DF801008000821C0120FA
:1006800000FA02F20868104308601CE09DF80110AF
:100690006FF01F0000EB81010F2000FA01F240F61D
:1006A0000401C4F201010868904308609DF801202C
:1006B0006FF01D0000EB8202012000FA02F20868D0
:1006C00010430860FFE7FFE7FFE7FFE7F9E19DF868
:1006D00003100120B0EB111F40F0F580FFE741F25D
:1006E0001800C4F2020000680007002809D4FFE7E0
:1006F00041F21801C4F20201086840F008000860E5
:10070000FFE79DF8020000284ED1FFE79DF80100A9
:10071000072818DCFFE79DF8010081000F2000FA90
:1007200001F240F60041C4F20101086890430860FC
:100730009DF801008000821C022000FA02F2086885
:10074000104308601CE09DF801106FF01F0000EBE3
:1007500081010F2000FA01F240F60441C4F20101C8
:100760000868904308609DF801206FF01D0000EBC1
:100770008202022000FA02F2086810430860FFE7D4
:100780009DF80110012000FA01F340F60C41C4F27B
:1007900001010A689A430A609DF8012000FA02F2FA
:1007A0000868104308608DE09DF80200012847D1D9
:1007B000FFE79DF80100072818DCFFE79DF801001E
:1007C00081000F2000FA01F240F60041C4F201015D
:1007D0000868904308609DF801008000821C022098
:1007E00000FA02F20868104308601CE09DF801104E
:1007F0006FF01F0000EB81010F2000FA01F240F6BC
:100800000441C4F201010868904308609DF801208A
:100810006FF01D0000EB8202022000FA02F208686D
:1008200010430860FFE79DF80110012000FA01F273
:1008300040F60C41C4F2010108689043086040E0B2
:100840009DF8020002283BD1FFE79DF80100072830
:1008500018DCFFE79DF8010081000F2000FA01F28B
:1008600040F60041C4F201010868904308609DF819
:1008700001008000821C012000FA02F20868104387
:1008800008601CE09DF801106FF01F0000EB810173
:100890000F2000FA01F240F60441C4F20101086899
:1008A000904308609DF801206FF01D0000EB82026C
:1008B000012000FA02F2086810430860FFE7FFE732
:1008C000FFE7FFE7FCE09DF803100220B0EB111FEB
:1008D00040F0F580FFE741F21800C4F20200006822
:1008E000C006002809D4FFE741F21801C4F2020152
:1008F000086840F010000860FFE79DF8020000283B
:100900004ED1FFE79DF80100072818DCFFE79DF8AE
:10091000010081000F2000FA01F241F20001C4F24F
:1009200001010868904308609DF801008000821C66
:10093000022000FA02F20868104308601CE09DF8EB
:1009400001106FF01F0000EB81010F2000FA01F28F
:1009500041F20401C4F201010868904308609DF867
:1009600001206FF01D0000EB8202022000FA02F26B
:10097000086810430860FFE79DF80110012000FAA5
:1009800001F341F20C01C4F201010A689A430A60C2
:100990009DF8012000FA02F20868104308608DE01B
:1009A0009DF80200012847D1FFE79DF801000728C4
:1009B00018DCFFE79DF8010081000F2000FA01F22A
:1009C00041F20001C4F201010868904308609DF8FB
:1009D00001008000821C022000FA02F20868104325
:1009E00008601CE09DF801106FF01F0000EB810112
:1009F0000F2000FA01F241F20401C4F2010108687B
:100A0000904308609DF801206FF01D0000EB82020A
:100A1000022000FA02F2086810430860FFE79DF820
:100A20000110012000FA01F241F20C01C4F20101AF
:100A300008689043086040E09DF8020002283BD11E
:100A4000FFE79DF80100072818DCFFE79DF801008B
:100A500081000F2000FA01F241F20001C4F201010D
:100A60000868904308609DF801008000821C012006
:100A700000FA02F20868104308601CE09DF80110BB
:100A80006FF01F0000EB81010F2000FA01F241F22C
:100A90000401C4F201010868904308609DF8012038
:100AA0006FF01D0000EB8202012000FA02F20868DC
:100AB00010430860FFE7FFE7FFE7FFE7FFE7FFE717
:100AC000FFE701B07047000081B08DF803008DF89A
:100AD00002109DF8030000F00F008DF801009DF852
:100AE00003100020B0EB111F40F01481FFE741F22A
:100AF0001800C4F2020000684007002809D4FFE78C
:100B000041F21801C4F20201086840F004000860D4
:100B1000FFE79DF8010007287BDCFFE79DF8010057
:100B200081000F2000FA01F240F60001C4F2010139
:100B30000868904308609DF8020080B9FFE740F61E
:100B40000001C4F20101086808609DF801008200FC
:100B5000032000FA02F208681043086058E09DF88C
:100B60000200012818D1FFE79DF801008000811CD8
:100B7000012000FA01F240F60001C4F20101086808
:100B8000104308609DF801008200032000FA02F281
:100B90000868104308603AE09DF80200022818D166
:100BA000FFE79DF801008000811C022000FA01F29D
:100BB00040F60001C4F201010868104308609DF886
:100BC00001008200032000FA02F208681043086066
:100BD0001CE09DF80200032817D1FFE79DF80100F3
:100BE0008000811C032000FA01F340F60001C4F2EA
:100BF00001010A681A430A609DF80120920000FA78
:100C000002F2086810430860FFE7FFE7FFE7FFE72D
:100C10007FE09DF8010008388DF801009DF8010083
:100C200081000F2000FA01F240F60401C4F2010134
:100C30000868904308609DF8020080B9FFE740F61D
:100C40000401C4F20101086808609DF801008200F7
:100C5000032000FA02F208681043086058E09DF88B
:100C60000200012818D1FFE79DF801008000811CD7
:100C7000012000FA01F240F60401C4F20101086803
:100C8000104308609DF801008200032000FA02F280
:100C90000868104308603AE09DF80200022818D165
:100CA000FFE79DF801008000811C022000FA01F29C
:100CB00040F60401C4F201010868104308609DF881
:100CC00001008200032000FA02F208681043086065
:100CD0001CE09DF80200032817D1FFE79DF80100F2
:100CE0008000811C032000FA01F340F60401C4F2E5
:100CF00001010A681A430A609DF80120920000FA77
:100D000002F2086810430860FFE7FFE7FFE7FFE72C
:100D1000FFE737E29DF803100120B0EB111F40F010
:100D20001481FFE741F21800C4F2020000680007D6
:100D3000002809D4FFE741F21801C4F20201086853
:100D400040F008000860FFE79DF8010007287BDC01
:100D5000FFE79DF8010081000F2000FA01F240F644
:100D60000041C4F201010868904308609DF8020048
:100D700080B9FFE740F60041C4F20101086808604D
:100D80009DF801008200032000FA02F20868104377
:100D9000086058E09DF80200012818D1FFE79DF88F
:100DA00001008000811C012000FA01F240F60041A0
:100DB000C4F201010868104308609DF80100820038
:100DC000032000FA02F20868104308603AE09DF838
:100DD0000200022818D1FFE79DF801008000811C65
:100DE000022000FA01F240F60041C4F20101086855
:100DF000104308609DF801008200032000FA02F20F
:100E00000868104308601CE09DF80200032817D111
:100E1000FFE79DF801008000811C032000FA01F328
:100E200040F60041C4F201010A681A430A609DF8C5
:100E30000120920000FA02F2086810430860FFE700
:100E4000FFE7FFE7FFE77FE09DF8010008388DF836
:100E500001009DF8010081000F2000FA01F240F628
:100E60000441C4F201010868904308609DF8020043
:100E700080B9FFE740F60441C4F201010868086048
:100E80009DF801008200032000FA02F20868104376
:100E9000086058E09DF80200012818D1FFE79DF88E
:100EA00001008000811C012000FA01F240F604419B
:100EB000C4F201010868104308609DF80100820037
:100EC000032000FA02F20868104308603AE09DF837
:100ED0000200022818D1FFE79DF801008000811C64
:100EE000022000FA01F240F60441C4F20101086850
:100EF000104308609DF801008200032000FA02F20E
:100F00000868104308601CE09DF80200032817D110
:100F1000FFE79DF801008000811C032000FA01F327
:100F200040F60441C4F201010A681A430A609DF8C0
:100F30000120920000FA02F2086810430860FFE7FF
:100F4000FFE7FFE7FFE7FFE71BE19DF80310022043
:100F5000B0EB111F40F01481FFE741F21800C4F21A
:100F600002000068C006002809D4FFE741F218011A
:100F7000C4F20201086840F010000860FFE79DF825
:100F8000010007287BDCFFE79DF8010081000F20AE
:100F900000FA01F241F20001C4F201010868904335
:100FA00008609DF8020080B9FFE741F20001C4F239
:100FB0000101086808609DF801008200032000FA22
:100FC00002F208681043086058E09DF8020001280A
:100FD00018D1FFE79DF801008000811C012000FA74
:100FE00001F241F20001C4F20101086810430860F7
:100FF0009DF801008200032000FA02F20868104305
:1010000008603AE09DF80200022818D1FFE79DF839
:1010100001008000811C022000FA01F241F200016F
:10102000C4F201010868104308609DF801008200C5
:10103000032000FA02F20868104308601CE09DF8E3
:101040000200032817D1FFE79DF801008000811CF2
:10105000032000FA01F341F20001C4F201010A6821
:101060001A430A609DF80120920000FA02F2086813
:1010700010430860FFE7FFE7FFE7FFE77FE09DF829
:10108000010008388DF801009DF8010081000F2053
:1010900000FA01F241F20401C4F201010868904330
:1010A00008609DF8020080B9FFE741F20401C4F234
:1010B0000101086808609DF801008200032000FA21
:1010C00002F208681043086058E09DF80200012809
:1010D00018D1FFE79DF801008000811C012000FA73
:1010E00001F241F20401C4F20101086810430860F2
:1010F0009DF801008200032000FA02F20868104304
:1011000008603AE09DF80200022818D1FFE79DF838
:1011100001008000811C022000FA01F241F204016A
:10112000C4F201010868104308609DF801008200C4
:10113000032000FA02F20868104308601CE09DF8E2
:101140000200032817D1FFE79DF801008000811CF1
:10115000032000FA01F341F20401C4F201010A681C
:101160001A430A609DF80120920000FA02F2086812
:1011700010430860FFE7FFE7FFE7FFE7FFE7FFE750
:10118000FFE7FFE701B0704780B582B08DF8070038
:101190009DF80700192805DCFFE79DF807001528D2
:1011A00001DCFFE7F3E09DF807000221FFF78CFC6C
:1011B00041F21C00C4F2020000684007002809D474
:1011C000FFE741F21C01C4F20201086840F004008C
:1011D0000860FFE740F60000C4F20000008810F04D
:1011E000810F2DD1FFE740F60001C4F2000108880D
:1011F00040F08100088040F60401C4F200010020A4
:10120000088040F60801C4F20001088040F60C0195
:10121000C4F20001088040F61401C4F20001088005
:1012200040F61801C4F20001088040F61C01C4F227
:101230000001088040F64801C4F200010880FFE781
:101240009DF80700163801281DDCFFE79DF8071000
:101250006FF0AB0000EBC101062000FA01F240F68E
:101260001801C4F200010888104308809DF8072087
:101270006FF0AC0000EBC202012000FA02F2088815
:101280001043088017E09DF807206FF0BB0000EBCB
:10129000C201062088406FF0BC0101EBC2020121AF
:1012A000914040EA010240F61C01C4F200010888A6
:1012B00010430880FFE740F62000C4F200000088D9
:1012C0009DF807206FF0570101EB8201C840C0076D
:1012D00088B9FFE79DF807106FF0570000EB810118
:1012E000012000FA01F240F62001C4F20001088852
:1012F00010430880FFE740F62800C4F20000008891
:1013000070B9FFE740F62801C4F2000147200880C9
:1013100040F62C01C4F2000141F288300880FFE75A
:101320009DF80700162808D1FFE740F63401C4F203
:1013300000014FF47A70088029E09DF80700172813
:1013400008D1FFE740F63801C4F200014FF47A708B
:1013500008801BE09DF80700182808D1FFE740F639
:101360003C01C4F200014FF47A7008800DE09DF852
:101370000700192808D1FFE740F64001C4F2000138
:101380004FF47A700880FFE7FFE7FFE7FFE702B05E
:1013900080BD000010B586B040F2FC01C2F2000131
:1013A00000200590086040F20011C2F200010860C0
:1013B00040F28801C2F20001088008818880C8805C
:1013C00048804881012002210091FFF779F80099B7
:1013D0000846FFF775F800990320FFF771F80099A8
:1013E00006200190FFF76CF800990720FFF768F8D6
:1013F000059941F21C04C4F20204206840F0010087
:1014000020604FF08042108840F0010010800420DE
:10141000C4F2000001800820C4F2000001800C2208
:10142000C4F200021C2010801422C4F200021180B9
:101430001823C4F2000340F2011202921A801C2306
:10144000C4F200031A802023C4F2000343F21032D6
:101450001A802823C4F20003472203921A802C2307
:10146000C4F200034FF6FF7204921A804822C4F2BD
:101470000002118000F0E8FDDDF804C0029B039A31
:1014800004990598D4F800E04EF0020EC4F800E08C
:1014900040F20044C4F20004B4F800E04EF0010E43
:1014A000A4F800E040F2044EC4F2000EAEF80000D2
:1014B00040F2084EC4F2000EAEF8000040F20C4EAE
:1014C000C4F2000EAEF800C040F2144CC4F2000C9E
:1014D000ACF8000040F2184CC4F2000CACF800303C
:1014E00040F21C4CC4F2000CACF8003040F2204C2E
:1014F000C4F2000C3323ACF8003040F22843C4F2AD
:1015000000031A8040F22C42C4F20002118040F223
:101510004841C4F2000108801D2000F095FD06B08E
:1015200010BD000081B08DF8030045F60000C4F244
:10153000000000888005002809D5FFE745F6000176
:10154000C4F20001088820F400700880FFE7FFE77C
:1015500045F60000C4F2000000888005002801D58F
:10156000FFE7F5E79DF8030045F61001C4F200011E
:101570000880FFE745F61400C4F2000000888007E9
:10158000002801D4FFE7F5E745F61400C4F2000097
:10159000008845F61801C4F200010988084380B2AA
:1015A00040F2C411C2F20001086001B070470000AF
:1015B00080B582B08DF807001A2003210091FFF753
:1015C00083FA00991B20FFF77FFA642000F0D0FF18
:1015D00041F21C00C4F2020000684002002809D455
:1015E000FFE741F21C01C4F20201086840F48000E8
:1015F0000860FFE7642000F0BBFFFFE745F6180036
:10160000C4F2000000888007002801D5FFE7F5E755
:1016100045F60001C4F20001088840F4004008804B
:10162000642000F0A5FFFFE745F61800C4F20000B3
:1016300000888007002801D5FFE7F5E745F600019F
:10164000C4F20001002008809DF80700B8B9FFE748
:1016500045F60401C4F20001088840F00800088043
:1016600045F62001C4F200010920088045F61C015E
:10167000C4F20001088840F01C00088020E09DF8BA
:10168000070001281BD1FFE745F60401C4F2000161
:10169000088840F01400088045F62001C4F20001DB
:1016A0000720088045F61C01C4F20001088840F4B8
:1016B00040400880088840F002000880FFE7FFE70C
:1016C000642000F055FF45F60001C4F200010888CF
:1016D00040F00100088002B080BD000080B584B0F9
:1016E0008DF80F0002918DF807209DF807008DF806
:1016F00006009DF80F00FFF715FF9DF80700012871
:101700001DD1FFE745F60001C4F20001088820F46E
:101710008060088000F0AEF8FFE745F61400C4F2E0
:10172000000000884006002801D4FFE7F5E745F6F1
:101730001000C4F200000088029908702CE09DF8A7
:101740000700022827DBFFE7FFE79DF806000328D4
:101750000CDBFFE700F022F802994A1C02920870A5
:101760009DF8060001388DF80600EEE700F016F847
:1017700002994A1C0292087045F60001C4F2000169
:10178000088820F48060088000F074F800F006F803
:1017900002990870FFE7FFE704B080BDFFE745F658
:1017A0001400C4F2000000884006002801D4FFE7BE
:1017B000F5E745F61000C4F200000088C0B270479B
:1017C00080B584B08DF80F008DF80E1002928DF860
:1017D000073000F01BF89DF80F004000C0B2FFF783
:1017E000A1FE9DF80E0000F053F800F00FF89DF8F0
:1017F0000F004000013002999DF80720C0B2FFF7AA
:101800006DFF00F037F804B080BD000045F6000021
:10181000C4F2000000888005002809D5FFE745F6DE
:101820000001C4F20001088820F400700880FFE77E
:10183000FFE745F60000C4F200000088800500289C
:1018400001D5FFE7F5E745F60001C4F2000108887D
:1018500040F480600880088840F480700880FFE7CA
:1018600045F61400C4F200000088C00708B9FFE77D
:10187000F6E7704745F60001C4F20001088840F41D
:1018800000700880088820F480600880704700009D
:1018900081B08DF80300FFE745F61400C4F20000A4
:1018A00000880006002801D4FFE7F5E79DF8030053
:1018B00045F61001C4F200010880FFE745F6140068
:1018C000C4F2000000884007002801D4FFE7F5E7D4
:1018D00001B0704780B582B08DF807008DF8061012
:1018E0008DF80520FFF792FF9DF807004000C0B279
:1018F000FFF718FE9DF80600FFF7CAFF9DF80500E8
:10190000FFF7C6FFFFF7B6FF02B080BD80B5C0B0DD
:1019100000F054FB40F26000C2F20000B0F9000099
:1019200001F0DDFD00222C920023C4F2B0031D93D0
:1019300001F04CFC0A4640F2B001C2F200012E91C7
:101940004A60086040F26200C2F20000B0F9000094
:1019500001F0C5FD1D9B2C9A01F038FC0A462E991A
:10196000CA60886040F26400C2F20000B0F9000072
:1019700001F0B5FD1D9B2C9A01F028FC0A462E991A
:101980004A61086140F2A000C2F20000B0F9000014
:1019900040F29401C2F200010968401A01F09FFD73
:1019A0000A462E99CA61886140F29800C2F200008E
:1019B000B0F9000040F29C01C2F200010968401A2F
:1019C00001F08DFD0A462E994A62086240F2A80095
:1019D000C2F20000B0F9000040F2A401C2F200011E
:1019E0000968401A01F07BFD02462E981E920A46B5
:1019F0001E99C262816201681F91416820918168CD
:101A00002391C1682491026943691046194601F087
:101A100091FD1F9A209B219022911046194601F0BA
:101A200089FD219A229B01F021FB01F0F9FA02467F
:101A300023980B46249901F0C9FB01F091F900F0BD
:101A40008BFB02462E9825920B46259940F21012E8
:101A5000C2F200025360116001682A9141688268F5
:101A60002692C268279281F000412B910269436956
:101A70001046194601F05EFD269A279B2890299171
:101A80001046194601F056FD289A299B01F0EEFAFE
:101A900001F0C6FA02462A980B462B9901F096FBF4
:101AA00001F05EF900F058FB2C9A8C462E9940F21A
:101AB000E803C2F20003C3F804C018608869C9696A
:101AC0004FF68033C4F2CF032D9301F07FFB2C9AA5
:101AD0002D9B8E462E9940F2281CC2F2000CCDF8A8
:101AE000BCC0CCF804E0CCF80000086A496A01F0F8
:101AF0006DFB2C9A2D9B8E462E9940F2201CC2F233
:101B0000000CCDF8C4C0CCF804E0CCF80000886A22
:101B1000C96A01F05BFB02462F9830920B46309960
:101B200040F23012C2F200023A9253601160026831
:101B3000436840F21811C2F20001399108684968FF
:101B400001F094FA399A0346319832930B46329950
:101B5000536011600268436840F2F001C2F2000174
:101B60003F910868496801F081FA02463F980B46A8
:101B70003A99436002600268339240683490086882
:101B800049684EF21122CAF2262237924DF6467368
:101B9000C3F69173389301F0CDFC01F0F1F9DDF853
:101BA000E4C0024633980B463499DCF800E0CDF8E7
:101BB000D4E0DCF804C0CDF8D8C001F0BBFC02468C
:101BC00035980B46369901F0A5FE379A389B844626
:101BD00039988E463A99C0F804E0C0F800C0D0F8B1
:101BE00000C0CDF8ECC040683C900868496801F03E
:101BF000A1FC01F0C5F9DDF8FCC002463B980B469C
:101C00003C99DCF800E0CDF8F4E0DCF804C0CDF855
:101C1000F8C001F08FFC3D9A3E9B01F027FA0A467E
:101C20003F994A60086040F2CC10C2F20000007890
:101C300000285ED0FFE740F2F000C2F200001590ED
:101C400001680F914068109040F2E801C2F2000173
:101C5000086849684AF60022CDF2F122139246F252
:101C60004D23C3F66073149301F064FC02460F9891
:101C700011920A461099129240F65662CBF22D222A
:101C800016924EF69D73C3F6EF73179301F052FC54
:101C9000119A129B01F0EAF9139A149B8C4615993C
:101CA000C1F804C0086040F21810C2F200001C9095
:101CB000016818914068199040F21011C2F20001B9
:101CC0000868496801F036FC169A179B84461898F4
:101CD000CDF868C08C461999CDF86CC001F02AFC8B
:101CE0001A9A1B9B01F0C2F90A461C994A600860C7
:101CF0001EE040F2E801C2F2000108684A6840F2C2
:101D0000F001C2F200014A60086040F21011C2F214
:101D1000000108684A6840F21811C2F200014A60E6
:101D2000086040F2CC11C2F2000101200870FFE708
:101D300040F2E000C2F200000790016801914068A3
:101D4000029040F2F001C2F200010868496849F6C9
:101D50009A12C9F69912059249F69913C3F6B97306
:101D6000069301F0E7FB0246019803920A460299A6
:101D700004924CF6CD42CCF6CC4208924CF6CC43C1
:101D8000C3F6EC73099301F0D5FB039A049B01F0B1
:101D90006DF9059A069B8C460799C1F804C0086046
:101DA00040F20810C2F200000E9001680A914068EB
:101DB0000B9040F21811C2F200010868496801F066
:101DC000B9FB089A099B84460A98CDF830C08C4626
:101DD0000B99CDF834C001F0ADFB0C9A0D9B01F0CE
:101DE00045F90A460E994A60086040B080BD00007F
:101DF00080B582B00020009040F29401C2F2000150
:101E0000086040F29C01C2F20001086040F2A401A7
:101E1000C2F200010860ADF80600FFE7BDF8060059
:101E2000B0F5FA7F3DDAFFE700F04EFC009000F0DD
:101E3000C5F840F2A000C2F20000B0F9002040F264
:101E40009401C2F2000108681044086040F2980052
:101E5000C2F20000B0F9002040F29C01C2F2000181
:101E600008681044086040F2A800C2F20000B0F90F
:101E7000002040F2A401C2F200010868104408608A
:101E8000FFE700F021FC0099401A40097C2801D8A6
:101E9000FFE7F6E7FFE7BDF806000130ADF8060002
:101EA000BCE740F29401C2F20001086844F6D35244
:101EB000C1F2620280FB0203581100EBD37008608C
:101EC00040F29C01C2F20001086880FB0203581135
:101ED00000EBD370086040F2A401C2F20001086870
:101EE00080FB0202501100EBD270086002B080BD8E
:101EF00080B584B040F2B001C2F20001002002902F
:101F000048600860C86088604861086140F2181144
:101F1000C2F200014860086040F2F001C2F2000124
:101F20004860086040F2B811C2F2000148600860E1
:101F3000682075210DF10F02012300F019F89DF8BA
:101F40000F00682811D1FFE7682001906B21002263
:101F500000F022F801981C21102200F01DF80198D1
:101F60001B21082200F018F8FFE704B080BD000034
:101F700080B584B08DF80F008DF80E1002928DF8A8
:101F800007309DF80F009DF80E10029A9DF807305B
:101F9000FFF716FC04B080BD80B582B08DF8070055
:101FA0008DF806108DF805209DF807009DF80610A5
:101FB0009DF80520FFF78EFC02B080BD80B582B091
:101FC00040F26602C2F20002019268203B210E2319
:101FD000FFF7CEFF01980278417841EA022140F2F2
:101FE0006002C2F2000211808278C17841EA0221C7
:101FF00040F26202C2F2000211800279417941EAA4
:10200000022140F26402C2F200021180027A417A97
:1020100041EA022140F2A002C2F200021180827A5B
:10202000C17A41EA022140F29802C2F20002118014
:10203000017B407B40EA012040F2A801C2F200018E
:10204000088002B080BD000081B08DF803009DF9CA
:10205000031001F01F02012090404A114EF20011BE
:10206000CEF2000141F8220001B0704782B08DF835
:10207000070000919DF90700B0F1FF3F0CDCFFE77E
:10208000009800019DF8071001F00F014EF6145260
:10209000CEF2000288540BE000980001C0B29DF916
:1020A00007204EF20041CEF2000141F82200FFE786
:1020B00002B07047B0B58CB040F28800C2F20000A8
:1020C0000790008801F022FA6B460025C4F234051F
:1020D0005D61002209921A610024CCF23404DC60B4
:1020E0009A6044F2000CC4F29F0CCDF82CC0C3F8E7
:1020F00004C01A6044F20003C4F28F030A9300F094
:102100009BFA0246079808920B46089940F2800213
:10211000C2F2000253601160408801F0F7F9099A99
:102120000A9BDDF82CE0EC46CCF81450CCF81020DB
:10213000CCF80C40CCF80820CCF804E0CCF8002017
:1021400000F07AFA0A4640F27801C2F200014A60D1
:1021500008600CB0B0BD000080B584B0039102905F
:102160000022019200920298039948F20003C4F2FF
:10217000660301F0DFF94DF2F142C5F2C83242F2D6
:10218000FB13C4F2090301F021F8019100900098BB
:10219000019904B080BD000080B500F001F880BD59
:1021A00084B000200390029041F20001C4F20201C9
:1021B000086840F480300860FFE741F20000C4F294
:1021C0000200006800F40030029003980130039090
:1021D000FFE702990020019039B9FFE70398B0F5B5
:1021E000A06018BF01200190FFE70198C0070028F8
:1021F000E3D1FFE741F20000C4F20200006880036F
:10220000002803D5FFE70120029002E000200290A1
:10221000FFE70298012851D1FFE742F20001C4F222
:102220000201086840F010000860086820F007000C
:102230000860086840F00200086041F20401C4F23E
:10224000020100910868086008680860086840F4A6
:1022500080600860086820F47C100860086840F41A
:10226000E810086041F20001C4F20201086840F081
:1022700080700860FFE741F20000C4F202000068CD
:102280008001002801D4FFE7F5E741F20401C4F220
:102290000201086820F003000860086840F00200AE
:1022A0000860FFE741F20400C4F20200006800F099
:1022B0000C00082801D0FFE7F4E700E0FFE704B0D6
:1022C0007047000040F2D411C2F20001086844F2E5
:1022D0004122C0F20F0210440860704780B541F2FD
:1022E0000002C4F20202106840F00100106041F2E6
:1022F0000401C4F2020108680023CFF6FF0318406E
:10230000086010684FF6FF73CFF6F6631840106050
:10231000106820F480201060086820F4FE00086037
:1023200041F20801C4F202014FF41F000860FFF7F8
:1023300033FF4EF60851CEF200014FF00060086006
:1023400080BD000080B584B0FDF7C6FFFFF722F81E
:102350002D20019000210091FEF7B6FB00991E2070
:102360000290FEF7B1FB00991F200390FEF7ACFB33
:102370000198FEF70BF80298FEF708F80398FEF7AD
:1023800005F80120FFF714F9FFF7B2FDFFF730FD64
:1023900004B080BD40F60800C4F201000068800768
:1023A000002816D5FFE73820C4F20000008840F26C
:1023B000FC01C2F2000108602021C4F2000108887B
:1023C00040F0200008801021C4F2000100200880A5
:1023D00060E040F60800C4F20100006880070028B1
:1023E0001AD4FFE73820C4F20000008840F2FC0154
:1023F000C2F200010968401A40F6FE71084040F23E
:102400008801C2F2000108802021C4F2000108887E
:1024100020F020000880FFE740F60800C4F2010029
:1024200000684007002813D4FFE73C20C4F20000F6
:10243000008840F2FC01C2F200010968401A40F62F
:10244000FE71084040F28801C2F200014880FFE7B7
:1024500040F60800C4F2010000680007002813D409
:10246000FFE74020C4F20000008840F2FC01C2F205
:1024700000010968401A40F6FE71084040F28801E8
:10248000C2F20001C880FFE71021C4F20001002061
:102490000880FFE77047000040F60800C4F2010022
:1024A00000684006002819D5FFE740F23440C4F226
:1024B0000000008840F20011C2F20001086040F202
:1024C0002041C4F20001088840F00200088040F278
:1024D0001041C4F200010020088048E040F60800E6
:1024E000C4F201000068400600281CD4FFE740F257
:1024F0003440C4F20000008840F20011C2F2000132
:102500000968401A40F6FE71084040F28801C2F2A4
:102510000001888040F22041C4F20001088820F0C8
:1025200002000880FFE740F60800C4F201000068DE
:102530000006002814D4FFE740F23840C4F200003F
:10254000008840F20011C2F200010968401A40F60A
:10255000FE71084040F28801C2F200010881FFE7E5
:1025600040F21041C4F2000100200880FFE77047EC
:1025700082B0019000200090FFE700980199884206
:1025800006DAFFE700BFFFE7009801300090F4E7AC
:1025900002B0704780B584B000200390FFF7D2FEF0
:1025A0001620FEF7F1FD1720FEF7EEFD1820FEF7CE
:1025B000EBFD1920FEF7E8FD4FF47A700290FDF76D
:1025C000B5FE0298FDF7BEFE0298FDF7C7FE029821
:1025D000FDF7D0FE1F20FDF723FFFFE700F074F8A2
:1025E00040F2C811C2F200010860FFF78FF9FFF74F
:1025F00061FD40F28800C2F2000001900088FDF702
:1026000095FE01984088FDF791FE01988088FDF7BE
:102610008DFE0198C088FDF789FEFFE700F054F8B1
:1026200040F2C811C2F200010968401A40097C2832
:1026300001D8FFE7F2E7D1E72DE9F04192B01D465E
:1026400014460F4606461D991C981B9B1A9ADDF8E6
:1026500064E0DDF860C0119710960F950E94CDF8E8
:1026600034E0CDF830C00B930A920991089010988D
:1026700011990E9A02920F9B039301F04BF900906F
:102680000191089809990A9A06920B9B079301F009
:1026900041F9024600980B46019900F04BFF029A5F
:1026A000039B049005910C980D9901F033F90246B3
:1026B00004980B46059900F089FD069A079B00F0E7
:1026C000D5FC12B0BDE8F08140F2D410C2F2000097
:1026D00000684EF21801CEF200010A6845F240414E
:1026E000C0F28901891A48F63962C3F6E302A1FBF8
:1026F000022100EB51007047490050EAC12018BF89
:1027000004204A0D18BF40F0010040F2FF72B2EB06
:10271000515F08BF40F00200012808BF0520704744
:102720002DE9F74F144694B00021C4E90211159920
:10273000079121F00045C9498D4206DC1599C4E98D
:10274000000117B00020BDE8F08FC549DFF814A3E1
:10275000A9423CDD0799C44E0029C44FC44A1599CB
:10276000534619DD01F0D6F8554506D0C14AC24B93
:1027700001F0D0F8C4E900010AE04FF0D352BE4B9B
:1027800001F0C8F832463B4601F0C4F8C4E9000144
:1027900017B00120BDE8F08F00F068FC554506D069
:1027A000B44AB54B00F062FCC4E900010AE04FF006
:1027B000D352B14B00F05AFC32463B4600F056FC77
:1027C000C4E9000117B04FF0FF30BDE8F08FAB490E
:1027D000A942159978DB21F0004183468846A84A32
:1027E000A84B00F0A7FE0022A74B00F03FFC00F032
:1027F00047FE099000F073FE06460F469C4A53467A
:1028000000F098FE43465A4600F092FF80468A4602
:10281000984A994B3046394600F08CFE2A0D012526
:102820000B924246534600F083FF032DC4E900019A
:1028300039D00B98C1F30A51401A05EB45111139F3
:10284000814230DA9148C346784400EB0510CDF858
:102850000CA00C90D0E900233046394600F06AFE07
:1028600002460B46049106905846039901F052F82F
:1028700080468A4602460B465846039901F04AF8BC
:10288000049B069A01F046F883460C98039139465A
:10289000D0E90223304600F04DFE5A46039B01F07A
:1028A00039F86D1CBDE707980028A2BF099817B03A
:1028B000BDE8F08F616881F000416160099817B050
:1028C0004042BDE8F08FFFE784461598C1F313013D
:1028D000C0F30A50A0F2F5304FEA601800F01F066E
:1028E000C6F12000139000200690079041F4801E4E
:1028F00005206D4676B1664A08EB00017A4452F82D
:10290000213002EB8101B3404A68139922FA01F1A8
:10291000194305E05F4908EB0002794451F82210A1
:10292000A1FB0E27A1FB0C131A449A4234BF0123CA
:10293000002303EB070A05EB8003D3E901B70F443B
:102940008F4234BF0121002193448B4411B1934540
:1029500002D903E0934501D2012100E00021C3E93F
:1029600001B7514445F82010011EA0F10100C1DC5F
:102970000298059F00F10050800F12900298DDE947
:102980000356800000F0ABFD834628460D9100F011
:10299000BDFD6FF01D0201F0DDF8CDE90E013046FE
:1029A00000F0B4FD6FF03D0201F0D4F880468A4695
:1029B000384600F0ABFD6FF05D0201F0CBF8074642
:1029C00042465346119100F051FBDDE90E2300F021
:1029D0004DFB5A460D9B00F049FB00250E465A461A
:1029E00028460D9B00F096FFDDE90E2300F092FFD4
:1029F0004246534600F08EFF3A46119B00F098FE87
:102A0000DFF898A0244A534600F094FD0746884614
:102A1000234A244B3146284600F08CFD3A46434673
:102A200000F024FB074688464FF0A8425346314643
:102A3000284600F07FFD3A46434600F017FB159A02
:102A400012F0004F04D0129A81F0004152421292CB
:102A5000C4E90001129817B0BDE8F08FFB21E93FEF
:102A60007CD90240FB21F93F7370032E8A19A33BE6
:102A7000000040543163621A61B4D03DFB213941FA
:102A800083C8C96D305FE43F0000E03F5C14000084
:102A9000D8130000BA130000182D4454FB21F93D4F
:102AA0003326A611460B113C2DE9FF4D21F00048BD
:102AB00007460C46B8F1795F08DA00F0E1FC00281F
:102AC00001BF0020324904B0BDE8F08D3A462346EC
:102AD0001046194600F02EFD054602462D480E46CA
:102AE0000B460621784400F05DF82A46334600F094
:102AF00021FDDDE9022382468B463846214600F05F
:102B000019FD04460F4652465B462846314600F002
:102B100011FD22463B4600F0FDFE07468A464FF077
:102B2000FF322846314601F015F81B4A90450ADA73
:102B30003A46534600F0EEFE04B00022BDE8F04DE8
:102B4000134B00F0F5BD154A4245A8BFA8F5001586
:102B50004FF00004B8BF124D22462B4600F0DAFEBB
:102B60000646884622462B460020094900F0D2FE40
:102B700004460D463A4653463046414600F0CAFEEA
:102B800004B022462B46BDE8F04D00F0D1BD000058
:102B90000000F03F901100003333D33F0000E93FC5
:102BA0000000D23F2DE9F0414F1E00EBC701044663
:102BB000D1E9000115461E4637F006020DD02A461F
:102BC000334600F0B7FC7F1E04EBC703D3E90023B4
:102BD00000F04CFA37F00602F1D1022F25D0042F75
:102BE00013D0062F18BFBDE8F0812A46334600F007
:102BF000A1FCD4E90A2300F039FA2A46334600F052
:102C000099FCD4E9082300F031FA2A46334600F053
:102C100091FCD4E9062300F029FA2A46334600F055
:102C200089FCD4E9042300F021FA2A46334600F057
:102C300081FCD4E9022300F019FA2A46334600F059
:102C400079FCD4E90023BDE8F04100F00FBA0000A0
:102C50002DE9FF4D054621F0004084B00C46B0F14F
:102C6000795F0BDA2846FFF747FD042808BF00F01C
:102C70006FF8284608B02146BDE8F08D2A460B467D
:102C8000104600F057FC06460F462A46234600F041
:102C900051FC804626488A4632463B460521784408
:102CA000FFF780FF83461098029160B3214A224BC0
:102CB0004046514600F03EFCCDE900015A464046F0
:102CC0005146029B00F036FC82468846DDE906014B
:102CD0004FF0FF3200F03EFF5246434600F01AFE2E
:102CE00032463B4600F026FCDDE9062300F012FEEA
:102CF000DDE9002300F00EFE08B02A462346BDE8B9
:102D0000F04D00F015BD0B465A463046394600F0EE
:102D100011FC084A084B00F0A9F94246534600F05E
:102D200009FC08B02A462346BDE8F04D00F09EB9E4
:102D3000D6100000495555555555C5BF012200F024
:102D400009BF002213461046114600F03FBA0000AA
:102D5000024A0020110700F0FDBE000001FDFFFF48
:102D60002DE9F84F04460D4621F0004000917349CB
:102D7000814211DC7249884201DC06D12CB1204627
:102D80002946BDE8F84FFFF7D9BF6E48002DCCBFEC
:102D90006D496E49BDE8F88F6D49814211DD6D497D
:102DA0008142D8BF4FF0FF366DDD20462946FFF740
:102DB000A3FC042808BFFFF7CBFF20462946BDE847
:102DC000F88F6549654F25F00045814233DD644940
:102DD000814219DD002632464FF0804320462946C5
:102DE00000F044F980468A4601222046294600F038
:102DF000B1FE00223B4600F08DFD4246534600F0F6
:102E0000E5F904460D463EE001260022BA463B465F
:102E10002046294600F02AF980460F4600225346F4
:102E20002046294600F076FD42463B4600F0CEF9AA
:102E300004460D4627E04B4981421BDDDFF828A1FF
:102E40000226002253462046294600F073FB00224A
:102E50003B4600F00BF980460F46002253462046C1
:102E6000294600F057FD42463B4600F0AFF90446C4
:102E70000D4608E0032622462B4600203B4900F081
:102E8000A5F904460D4622462B461046194600F089
:102E900051FB8B46824602460B4600F04BFB074631
:102EA0000246334888460B4606217844FFF77AFEEF
:102EB00052465B4600F03EFB82462E488B463A4621
:102EC000434605217844FFF76DFE3A46434600F03D
:102ED00031FB02460B46002E504659460CDA00F0F4
:102EE000C5F822462B4600F025FB01B022462B46B2
:102EF000BDE8F04F00F01CBC00F0B8F822462B46AD
:102F000000F018FB1C4A7A4402EBC603D3E9002305
:102F100000F000FD22462B4600F0FCFC174A7A44E4
:102F200002EBC603D3E9002300F002FC009A002A5A
:102F3000B8BF81F00041BDE8F88F000000001044E8
:102F40000000F07F182D4454FB21F93FFB21F9BF0D
:102F50000000DC3F0000203E0000F33F0000F03F97
:102F60000000E63F008003400000F83F0000F0BF93
:102F70009A0D0000580D0000F60C0000BE0C000079
:102F800000B5254B21F0004287B09A4203DC0022B5
:102F9000134600922BE0214B9A4208D140B94FF0E2
:102FA0000100FDF755F9FFF7CCFE07B000BD03DBCC
:102FB000FFF7C4FE07B000BD02AAFFF7B1FB10F097
:102FC00003014FF001000DD0012914D002291AD0BD
:102FD0000DF1080C9CE80F00FFF766FD07B081F0CB
:102FE000004100BD0DF1080C00909CE80F00FFF7B8
:102FF0002FFE07B000BD0DF1080C9CE80F00FFF795
:1030000053FD07B000BD0DF1080C00909CE80F00C7
:10301000FFF71EFEE2E70000FB21E93F0000F07F22
:103020002DE9F04106460F4600F08EFB041E0D46CA
:1030300018BF0120284320F00040C0F17F6000F15C
:10304000E040C00F0ED0301C18BF0120384320F0E4
:103050000040C0F17F6000F1E040C00F04BF0120DC
:10306000FDF7F6F820462946BDE8F08110B591EA53
:10307000030F48BF83F0004300F15484841A71EBBE
:10308000030C05D2121943EB0C03001B61EB0C017E
:103090004FEA1154A4EB135CDFF81CE11EEA430F66
:1030A00018BF9EEA445F00F0748021EA045123EACD
:1030B0000E0343F48013DCF1200E32D322FA0CFE0F
:1030C00010EB0E0023FA0CFE41EB0E01CCF1200EAA
:1030D00003FA0EFE10EB0E00CCF1200E51F10001B0
:1030E000B1F5801F32D201EB045112FA0EF2BDE8A5
:1030F000104058BF7047401C38BF5FEA420218BFFB
:103100007047002814BF20F0010041F100014FEA90
:10311000410313F5001F38BF7047A1F1C04100F013
:1031200001BB012A43EB0302ACF1200CDCF11F0EC2
:1031300032BF4FF0000E23FA0CF310EB030041EB0B
:103140000451B4EB115FD0D0A1EB045101F5801113
:10315000490801EB04515FEA30000ED350F1000042
:1031600038BF12FA0EFE08D1BDE81040C9E7401C76
:1031700038BF5FEA4202CAD1C3E7BDE810404FEA58
:10318000410313F5001F38BF7047A1F1C04100F0A3
:10319000C9BA9EEA445F08D011EA5E0FBDE810404C
:1031A00004BF01F0004100207047BDE8104070B539
:1031B00000F06AFA64FBBE3E0000E0FF02494FF0F7
:1031C000000000F095BC00BF0000F87F2DE9C04171
:1031D00030B4DFF8A4C23CEA111418BF3CEA13145F
:1031E00000F0ED801CEA111481EA030544EAD5746D
:1031F00018BF1CEA131500F0C880A4EB050404F105
:103200007F7404F500344FF0004545EAC12145EADA
:10321000C32341EA505143EA52534FEAC0204FEAD8
:10322000C222994208BF904200F09D804FEA136588
:103230000FF24416765D4FEA134506FB05F7C7F11A
:10324000807706FB07F74FEAD737A7FB036876427C
:10325000A7FB06CEC8F5803838BFA8F1010807FBE8
:1032600008E6A6FB028C4FF0000EE6FB03CEDCF175
:10327000000CCEF1004E38BFAEF1010EA6FB0C588B
:103280004FF00007E6FB0E87A1FB08C6A0FB07CEA8
:1032900016EB0E064FF0000545F10005E1FB076552
:1032A00015F1E04E7EBFA4F580345FEA46066D411D
:1032B00016F1800745F100054FEA172747EA056731
:1032C0004FEA15254FEA0666A6F1DE46B6F1805FA5
:1032D00020D9384605EBC47124F0010C01EB0C1128
:1032E000BCF1FE6F02D8F0BCBDE8008124425CBF97
:1032F00001F5801E9EEAC47F02D4F0BCBDE80081C7
:10330000244200F13980A1F1C041F0BCBDE8004188
:1033100000F008BA4FEAD02040EA41504FEAD121EC
:103320004FEAD22242EA43524FEAD323A7FB028656
:1033300007FB036605FB02661EEA0E0F58BFA6EBED
:103340000056B6EB00564FEA520E4EEAC37E18EB1B
:103350000E0E56EB530EBCD518EB02085E417F1CD7
:1033600055F10005B5E74FF480154FF000074FF019
:1033700000064FF00008ACE701F1C04101F0004148
:103380004FF00000F0BCBDE800810CEA131511EA13
:103390000C1F00D00CE013EA0C1F00F026804FF049
:1033A000000081EA030101F00041F0BCBDE80081AA
:1033B000F0BCBDE8004181EA030100F0B3B9F0BC04
:1033C000BDE8004170B500F05FF900BF097EFC3E2A
:1033D00000F007B84FF0000081EA030101F000415E
:1033E000704781EA030100F09DB9F0BCBDE80041DF
:1033F00022494FF000007047FFFDFBF9F7F5F4F2AA
:10340000F0EEEDEBE9E8E6E4E3E1E0DEDDDBDAD87F
:10341000D7D5D4D3D1D0CFCDCCCBCAC8C7C6C5C4DD
:10342000C2C1C0BFBEBDBCBBBAB9B8B7B6B5B4B3F4
:10343000B2B1B0AFAEADACABAAA9A8A8A7A6A5A4DF
:10344000A3A3A2A1A09F9F9E9D9C9C9B9A999998A3
:103450009797969595949393929191908F8F8E8E46
:103460008D8C8C8B8B8A89898888878786858584D3
:1034700084838382828181800000FF070000F87FBF
:103480004FEA41034FEA5353A3F58063D3F11E0380
:10349000C8BFD3F1210C0CDD4FF0004242EAC1223B
:1034A00042EA505232FA03FC8CEAE17CACEBE17068
:1034B0007047102BC4BF0020704703F5787CBCF127
:1034C000FF3F04D06FF0004282EA2100704770B5E0
:1034D00000F0DAF84992248000207047F2E710F0FB
:1034E000004248BF4042B0FA80F310FA03F10AD01C
:1034F000C3F11D0303F5806302EB03524FEA415011
:1035000002EBD12170474FF000007047B0FA80F312
:1035100010FA03F10AD0C3F11D0303F580634FEAEB
:1035200003524FEA415002EBD12170474FF00000A7
:103530007047000070B5DFF848C11CEA111E1EBFBD
:103540001CEA13159EEA0C0F95EA0C0F00F06F8031
:1035500081EA03044EEAD47EAE4421EA4C1123EA08
:103560004C1341F4801143F48013AEF17F7EA1FB34
:10357000024CA0FB0365361955EB0C05A1FB034C6F
:103580004CF10003A0FB021C16EB0C06654153F145
:103590000003094218BF46F0010613F4007F0BD167
:1035A0004FEA03314FEA053041EA155140EA16501F
:1035B00034036FF003020AE04FEAC3214FEAC5204B
:1035C00041EA555140EA5650F4026FF0020202EB14
:1035D0002E4201EB025585EACE710AD05FEA440C17
:1035E00018BF24F0004450F1000041F1000120EA2E
:1035F000D47040F2FE7C624500D270BDA84214BF78
:103600004FF080444FF04044002E08BF0024BEF12C
:10361000806FA8BFA1F1C041BDE8704080F28280F8
:1036200001F1C04101F000414FF0000070470CEA89
:1036300013159EEA0C0F18BF95EA0C0F06D081EA0D
:10364000030E4FF000000EF0004170BD00F01CF8BA
:103650008900013E00F007B800F009B84FEA430CBA
:103660005FEA5C5C08D081EA030100F05BB84FEAD6
:10367000410C5FEA5C5CF6D102494FF000007047F4
:103680000000FF070000F87F0EF1020E2EF0030E7F
:103690005EF8046B364205D4012A43EB030515F5A9
:1036A000001F12D8012841EB010C1CF5001F0CD89B
:1036B0000ED14FEAD17C0CEB4C0C0CF1020C15F541
:1036C000001F08BF4CEBD37C04E04FF0080C01E076
:1036D0004FEAD37C0CEB4C0526FA05F606F00706FC
:1036E000B6F1040C06D20EEB860CBDE870404CF02F
:1036F000010C6047DFE80CF0090B02024FF00041BB
:10370000A1F500214FF0000070BD194610460128B8
:1037100051EB010418BFD4F5001484BF002001F060
:10372000004170BD0808A0F500114FEA3101704753
:1037300010B591EA030F81F000413FF59FAC83F093
:10374000004300F0EFB800002DE9F04101F5801CC6
:10375000BCF5001FC0F2C3804FEA115C21EA0C5196
:1037600041F480110CF1FD0C5FEA5C0C0CF5C07C9F
:1037700001D340004941890241EA905187023BA4AC
:103780008E0EA45D0A0C04FB04F602FB06F6C6F1DD
:103790004046A4FB0662F60D46EA422606FB06F406
:1037A000A4FB01235242C3F1404338BF5B1EA6FB7A
:1037B00002420024E6FB0324D20B42EA4446A6FB65
:1037C0000623A1FB02E2A3FB07E4A4184FF00002CA
:1037D00052F10002E3FB01426442C2F1404E38BFA5
:1037E000AEF1010EA6FB04234FF00002E6FB0E3201
:1037F000A2FB0346B6194FF0000454F10004E2FBAB
:103800000264A1FB06E6A4FB07E816EB08064FF0EE
:10381000000858F10008E4FB01687642C8F14058FE
:1038200038BFA8F10108A2FB06E4A3FB08E52D19A7
:103830004FF0000454F10004E2FB0854A1FB05E63C
:10384000A7FB04E818EB06084FF0000656F1000647
:10385000E1FB048618F1200556F10006A80940EAAC
:103860008660B109A8F11B0808F03F08B8F10A0FFB
:103870001CD901EB0C51BDE8F08100BFFCF5EEE86E
:10388000E2DDD8D3CFCBC7C3C0BDB9B6B4B1AEACFF
:10389000A9A7A5A3A19F9D9B9A9896959392908F77
:1038A0008D8C8B898887868584838281A0FB0068C4
:1038B00000FB01F208EB4208B8EB872807D5341863
:1038C00058EB0104D5D5401C51F10001D1E7341A61
:1038D00078EB0104CDD4401E71F10001C9E75FEA25
:1038E0004C0C5FEA9C5C0DD105D301F000414FF018
:1038F0000000BDE8F081BDE8F04170B5FFF7C4FEFF
:103900006DDBFFBEBDE8F04101494FF0000070479C
:103910000000F87F10B591EA030F48BF83F0004321
:103920003FF5ACAB841A71EB030C07D28CF0004C62
:10393000121943EB0C03001B61EB0C014FEA11540D
:10394000A4EB135CDFF8A4E11EEA430F18BF9EEA64
:10395000445F00F0B48021EA045123EA6E0352422E
:10396000C3EB6E0338BF5B1EDCF1200E25D322FAB9
:103970000CFE10EB0E0043FA0CFE41EB0E01CCF1F5
:10398000200E03FA0EFE10EB0E00CCF1200E51F1CA
:10399000000129D401EB045112FA0EF2BDE81040E7
:1039A00058BF7047401C1CBFB2F1004F7047002841
:1039B0000CBF491C20F00100704712EB020E43EBD4
:1039C000030218BF4FF0010E4EEA4202ACF1200C88
:1039D000DCF11E0E56D943FA0CFE10EB0E00CCF1B2
:1039E0001E0E51F1FF31D5D50EF1010E12FA0EFE69
:1039F000404141EB010101EB445C5FEA5C5C10D9A2
:103A000001EB045110EBDE7038BFBEF1004FBDE892
:103A1000104018BF704700280CBF491C20F001005F
:103A2000704734D24FEAD42C24F4006411F500110D
:103A30001BD0B1FA81F20B3AA41AA41ED2F12003D2
:103A4000914030FA03F31943904001EBCC7101EB44
:103A50000451002CBDE81040A8BF704701F1C041DF
:103A600001F000414FF000007047B0FA80F310FA07
:103A700003F102D1BDE810407047E41A173C480535
:103A8000C90AE2E701EB0451BDE810407047491054
:103A90004FEA300001EB0451BDE8104002E04FF066
:103AA000000170474A0008BF0042F8D0B2F5001F7D
:103AB00028BF704701F000414FF0000070479EEAB8
:103AC000445F07D011EA5E0FBDE8104004BF00213B
:103AD00000207047BDE8104070B5FFF7D5FD00BF6E
:103AE00040DFF63E104683F0004170470000E0FFE3
:103AF0000CF00F03092B08BF082000F059800A2B97
:103B00000BD0082B18BF704708BF1CF0400F0AD01D
:103B10004FF000004FF0000170471CF0400F18BF3D
:103B20004FF0004070471CF0100F08D000F07F42AB
:103B300020F0704342EAD3014FEA4370704700F02F
:103B4000604021F07F4242EA000201F07F4040EAFB
:103B5000727070474FF0FF0C4CF4E06C1CEA11538C
:103B60001CBF9CEA030C9445C2BFDA4201EB025130
:103B70007047002B0DD0BCF1000F0FD001F00041B9
:103B8000002AA4BF41F0E04141F07F614FF0000006
:103B9000704701F000414FF00000704750EA0133D8
:103BA0004FF09B0C18BF4CF0806C7FF407AB704754
:103BB0001CF4801F11D01CF4E02F03D06FEACC312D
:103BC000490070474FF04050EFF3008222F07042FE
:103BD00042EA000282F3008870474FF0000070470D
:103BE0004FBB610567ACDD3F182D4454FB21E93F15
:103BF0009BF681D20B73EF3F182D4454FB21F93F04
:103C0000E2652F227F2B7A3C075C143326A6813C89
:103C1000BDCBF07A8807703C075C143326A6913C34
:103C2000C4EB98999999C9BF711623FEC671BCBFA0
:103C30006D9A74AFF2B0B3BF9AFDDE522DDEADBF08
:103C40002F6C6A2C44B4A2BF0D5555555555D53F20
:103C5000FF8300922449C23F6E204CC5CD45B73F3B
:103C6000513DD0A0660DB13FEB0D76244B7BA93FB3
:103C700011DA22E33AAD903F4C5555555555A53FC5
:103C80007751C1166CC156BF9015CB19A001FA3EF1
:103C9000AD529C804F7E92BEC4B1B4BD9EEE213E1B
:103CA000D43888BEE9FAA8BD00004054FB21F93F92
:103CB0003163621A61B4D03D0000601A61B4D03D36
:103CC0007370032E8A19A33B0000002E8A19A33BB0
:103CD000C14920259A837B390000000000000000C4
:103CE0006E83F9A22915444ED15727FCC0DD34F567
:103CF000999562DB4190433CAB6351FE61C5BBDEED
:103D00003A6E24B7E0D24D42EA2E49061C92D10900
:103D10001CEB1DFE3EA729B1F53582E88444BB2E7D
:103D200026709CE9417E5FB439D69139F4395383CA
:103D30008B5F849C3B28F9BDFF97F81F0F9805DE29
:103D40008B112FEF1F6D0A5ACF7E366DB709CB2727
:103D5000663F464F2DEA5F9EC7BA27757BF1E5EBBC
:103D6000F739073DEA92528AB15FFB6B085D8D1F00
:103D70004630035600000000A6F810111111813FD3
:103D8000D561C119A0012ABF7DFEB157E31DC73E11
:103D9000EB9C2B8AE6E55ABE7CD5CF5A3AD9E53D55
:103DA000B03D000800000020D807000028010008EE
:04000005080000ED02
:00000001FF
